:100000000C942A000C943C000C943C000C943C0092
:100010000C943C000C943C000C943C000C943C0070
:100020000C943C000C943C000C943C000C943C0060
:100030000C943C000C943C000C943C000C943C0050
:100040000C943C000C943C000C943C000C943C0040
:100050000C943C0011241FBECFE5D8E0DEBFCDBF1D
:1000600010E0A0E6B0E001C01D92A436B107E1F7B0
:100070000E9472000C94F1020C9400009B01AC01F0
:100080008AB188618AB980B5866880BD64E0220F34
:10009000331F441F551F6A95D1F760E072E18AE76C
:1000A00090E00E948A02C901DA01215029B9019722
:1000B000A109B109892F9A2FAB2FBB2780BD0895C5
:1000C0005F9BFECF8CB108958CB95D9BFECF0895E8
:1000D000FC0104C08CB95D9BFECF319680818823E2
:1000E000C9F708953F924F925F926F927F928F92DD
:1000F0009F92AF92BF92CF92DF92EF92FF920F93B7
:100100001F93DF93CF93CDB7DEB760970FB6F89408
:10011000DEBF0FBECDBF8B9A81B38FEF81BB1DBCFD
:100120001CBC14BC60E875E280E090E00E943E00D8
:100130001FBC1EBC85EA9EE097BD86BD82E08FBDD8
:100140008BE18EBD81B3806381BB8FB580688FBD2D
:100150008FB580628FBD13BE8BE483BFBB9A83B71C
:10016000806283BF15BC8CE685BD8F9A85B58062A1
:1001700085BD82EB90E0909363008093620082E201
:1001800091E09BBD8ABD80E197E228EC30E0F90167
:100190003197F1F70197D9F786E98CBF80E197E2B3
:1001A00028EC30E0F9013197F1F70197D9F784E4B1
:1001B00090E099BD88BD80E197E228EC30E0F9013C
:1001C0003197F1F70197D9F784E483BD80E197E295
:1001D00028EC30E0F9013197F1F70197D9F7E0E029
:1001E000F0E00BEF402E0FEF502E12E0312EB0E476
:1001F0006B2EBCE97B2EA8EC8A2E912C5E01089414
:10020000A11CB11C2CC0449DC001459D900D549D66
:10021000900D1124865B994F90936100809360004C
:10022000939A95958795909361008093600020E064
:1002300030E005C0632D6A95F1F72F5F3F4F281717
:100240003907C4F393984B5F5F4F5093630040931B
:100250006200C3010197F1F702C0E0E0F0E05F9BAC
:10026000FECF8CB1813339F440916200509163002C
:100270004E3A5105B4F06091600090916100009198
:10028000620010916300049D7001059DF00C149DA7
:10029000F00C11242AE436E0E20EF31ECC24DD2417
:1002A00023C03196E431F1050CF4ADCFE4CF939A3D
:1002B000C70162E070E00E9477029B01CB0140E041
:1002C00050E005C0832D8A95F1F74F5F5F4F4217CD
:1002D0005307C4F39398F3013197F1F70550104099
:1002E00029E130E0E20EF31E5F9BFECF8CB182333A
:1002F00051F4043111053CF00894C11CD11C34E1C7
:10030000C316D104A1F6609360009093610010932E
:1003100063000093620013C083B5845083BD80E204
:1003200093E0F4013197F1F70197D9F78AB59BB5BE
:10033000B5014AE050E00E94C0020E9468005F9B45
:10034000FECF8CB1833319F483B5843428F75F9BD7
:10035000FECF8CB1843341F583B583B58C5F83BD0B
:1003600080E293E0F4013197F1F70197D9F78AB56C
:100370009BB5B5014AE050E00E94C0020E946800AF
:10038000E6CF8CB782508CBF84EF91E0F4013197B7
:10039000F1F70197D9F78CB790E0B5014AE050E04A
:1003A0000E94C0020E9468005F9BFECF8CB1853323
:1003B00019F48CB7843428F75F9BFECF8CB1863359
:1003C00051F58CB78CB78E5F8CBF84EF91E0F40150
:1003D0003197F1F70197D9F78CB790E0B5014AE072
:1003E00050E00E94C0020E946800E6CF8AB59BB52B
:1003F00002979BBD8ABD84EF91E0F4013197F1F73C
:100400000197D9F78AB59BB5B5014AE050E00E9443
:10041000C0020E9468005F9BFECF8CB18733D9F485
:100420008AB59BB58434910508F715C08AB59BB58C
:1004300002969BBD8ABD84EF91E0F4013197F1F7FC
:100440000197D9F78AB59BB5B5014AE050E00E9403
:10045000C0020E9468005F9BFECF8CB18833D9F444
:100460008AB59BB58B52914008F315C088B599B5F4
:10047000019799BD88BD80E293E0F4013197F1F7CF
:100480000197D9F788B599B5B5014AE050E00E94C7
:10049000C0020E9468005F9BFECF8CB18933D9F403
:1004A00088B599B58434910508F715C088B599B514
:1004B000019699BD88BD80E293E0F4013197F1F790
:1004C0000197D9F788B599B5B5014AE050E00E9487
:1004D000C0020E9468005F9BFECF8CB1803309F0A0
:1004E000BCCE88B599B58B52914000F3B6CE97FB40
:1004F000092E07260AD077FD04D02ED006D0002082
:100500001AF4709561957F4F0895F6F7909581954F
:100510009F4F0895A1E21A2EAA1BBB1BFD010DC01F
:10052000AA1FBB1FEE1FFF1FA217B307E407F507A3
:1005300020F0A21BB30BE40BF50B661F771F881F7F
:10054000991F1A9469F760957095809590959B0115
:10055000AC01BD01CF010895AA1BBB1B51E107C02F
:10056000AA1FBB1FA617B70710F0A61BB70B881F43
:10057000991F5A95A9F780959095BC01CD010895D2
:10058000FB019F01E8944230C4F04532B4F44A3094
:1005900029F497FB1EF4909581959F4F642F772740
:1005A0000E94AC02805D8A330CF0895D8193CB019F
:1005B0000097A1F716F45DE251931082C9010C94E3
:1005C000E102DC01FC01672F71917723E1F732979B
:1005D00004C07C916D9370836291AE17BF07C8F31E
:0605E0000895F894FFCF1E
:00000001FF
